:020000040800F2
:1000000000500020B92300082D0800082F08000820
:100010003108000833080008350800080000000017
:100020000000000000000000000000003708000889
:1000300039080008000000003B0800083D080008DF
:1000400001240008012400080124000801240008FC
:1000500001240008012400084508000801240008C4
:1000600001240008012400080124000801240008DC
:1000700001240008012400080124000801240008CC
:1000800001240008012400080124000801240008BC
:1000900001240008012400080124000801240008AC
:1000A000012400080124000801240008012400089C
:1000B000012400080124000801240008012400088C
:1000C000012400080124000801240008012400087C
:1000D000012400080124000801240008012400086C
:1000E0000124000801240008012400080000000089
:1000F0000000000000000000000000000000000000
:0C01000000000000000000005FF808F1A3
:10010C000348044B834202D0034B03B1184770479A
:10011C000C0000200C000020000000000548064BDD
:10012C001B1AD90F01EBA301491002D0034B03B1E9
:10013C00184770470C0000200C0000200000000045
:10014C0010B5064C237843B9FFF7DAFF044B13B113
:10015C000448AFF300800123237010BD0C00002075
:10016C00000000005C24000808B5054B1BB10549D4
:10017C000548AFF30080BDE80840FFF7CFBF00BFD4
:10018C0000000000100000205C24000838B5044674
:10019C000D460F4B10225A611F280CD800F01F047B
:1001AC0044F0200000F0A4F9284600F0A1F9084B17
:1001BC0010221A6138BD00F09BF904F11F03DBB269
:1001CC00022BF4D9FF2CF2D0284600F091F9EEE77F
:1001DC000008014070B50C461646094B10225A61B6
:1001EC0000F086F904E014F8010B00F081F92E46BA
:1001FC00731EDDB2002EF6D1014B10221A6170BDB8
:10020C000008014070B50C4616460A4B10225A6184
:10021C0000F06EF905E0FF2000F06AF904F8010B1C
:10022C002E46731EDDB2002EF5D1024B10221A6140
:10023C0070BD00BF0008014038B5064C1025656143
:10024C0000F01F0000F054F9FF2000F051F9256177
:10025C0038BD00BF0008014010B582B00F4C05221C
:10026C0021463020FFF7B6FF052269461020FFF724
:10027C00C9FF00232146042B0BD803F108026A4462
:10028C0012F8080C11F8012B904205D10133DBB2A6
:10029C00F1E7012002B010BD0020FBE77C24000830
:1002AC0010B504460020FFF7C7FF022C05D000F064
:1002BC00FD010020FFF76AFF10BD40F00201C9B23A
:1002CC00F7E710B504460020FFF7B6FF00F0FE017B
:1002DC0004F0010421430020FFF758FF10BD08B5BE
:1002EC0001460520FFF752FF08BD08B5811EC9B2B3
:1002FC000320FFF74BFF08BD10B504460620FFF79F
:10030C009BFF00F0F90121430620FFF73FFF10BDD2
:10031C0010B504460620FFF78FFF00F0D7012143EC
:10032C000620FFF733FF10BD10B5052804D90021B6
:10033C000120FFF72BFF10BD04460120FFF77CFFC7
:10034C00012303FA04F4E443E4B204EA000118467E
:10035C00FFF71CFFEFE708B50320FFF76DFF023036
:10036C00C0B208BD38B504460D4605280ED8022883
:10037C000FD201280CD8FFF7EEFF0246084B185D90
:10038C00294640F02000FFF725FF01E00628F2D0B7
:10039C0038BD0978024B185CFFF7F8FEF8E700BF90
:1003AC008424000808B50720FFF746FF08BD08B5F0
:1003BC00FF21E120FFF7EAFE08BD08B5FF21E2208E
:1003CC00FFF7E4FE08BD08B50720FFF735FF40F046
:1003DC007001C9B20720FFF7D9FE08BD10B582B075
:1003EC0008210020FFF7D2FE3F210120FFF7CEFEAF
:1003FC0003210220FFF7CAFE03210846FFF7C6FEC1
:10040C0003210420FFF7C2FE02210520FFF7BEFEE8
:10041C000E210620FFF7BAFE00210720FFF7B6FEDB
:10042C0000211120FFF7B2FE00211220FFF7AEFED3
:10043C0000211320FFF7AAFE00211420FFF7A6FECF
:10044C0000211520FFF7A2FE00211620FFF79EFECB
:10045C0000211C20FFF79AFE00211D20FFF796FEBD
:10046C00002307E003F108026A44E72102F8081CA4
:10047C000133DBB2042BF5D969460620FFF772FF76
:10048C0069460020FFF76EFF002307E003F1080226
:10049C006A44C22102F8081C0133DBB2042BF5D9E3
:1004AC0069460120FFF75EFF022409E0A4F13F0337
:1004BC008DF8003069462046FFF754FF0134E4B252
:1004CC00052CF3D9FFF779FFFFF771FFFFF77BFFDF
:1004DC00024B10221A6102B010BD00BF000801408F
:1004EC0008B50A460146A020FFF774FE08BD0000BF
:1004FC0000B587B08DF80F000B4B93F85130DBB281
:10050C00012BF9D100238DF81730642300930123BC
:10051C000DF117020DF10F01034800F086FA9DF85A
:10052C00170007B05DF804FB3400002072B6FEE73C
:10053C0000B595B0282200210DEB020001F080FFE0
:10054C000023059306930793089309930193029351
:10055C000393049301220A924FF480330B930E926F
:10056C000222119212934FF4801313930AA800F0F5
:10057C00F3FBD8B90F23059302230693902307931B
:10058C00002308930993012105A800F017FE78B900
:10059C0012230193002303934FF48003049301A8C7
:1005AC0000F0D8FE30B915B05DF804FBFFF7BEFFC4
:1005BC00FFF7BCFFFFF7BAFF30B587B0914B0122B4
:1005CC001A7000225A705A809A80DA8000F076FBFA
:1005DC00FFF7AEFF01F05AF901F0ECF901F044FA23
:1005EC0001F0B6FE884801F085FD0A2000F08AFB78
:1005FC00FFF7F4FEFFF730FE0028FBD00520FFF7D5
:10060C0074FE824B93E803000490ADF81410FF20A5
:10061C00FFF78AFE4620FFF762FE0620FFF76CFE0E
:10062C002020FFF775FE04A90620FFF79BFE002093
:10063C00FFF747FE0220FFF733FE00F05DFB044698
:10064C0081E0284601F04AFB01900134E4B2022C0F
:10065C0019D86D4D284601F029FC0121284601F0DE
:10066C007BFA012C05D0022C08D0002CE9D00424F4
:10067C00EBE7654801F032FB0290E6E7624801F0D7
:10068C002DFB0390E1E7019A40F2BD539A4265DCE1
:10069C00019BA3F616034FF47A7202FB03F35C4A38
:1006AC0082FB03121A44DB17C3EBA223A3F5967348
:1006BC001BB2544A5380029A40F21E739A426ADC6F
:1006CC00029BA3F6AF034FF47A7202FB03F3514A79
:1006DC0082FB03121A44DB17C3EBA223C83B1BB2E9
:1006EC00484A9380039A40F21E739A426EDC039B35
:1006FC00A3F6AF034FF47A7202FB03F3454A82FB75
:10070C0003121A44DB17C3EBA223C83B1BB23D4AAE
:10071C00D3800821404801F023F83A4B587000F080
:10072C00EBFA044608213748FFF7DAFE3B4B02226E
:10073C001A61FFF737FE10F0300FFAD0374B022258
:10074C005A61FFF740FE002301930293039300F0DC
:10075C00D3FA031B042BE5D9002478E7019A40F661
:10076C0016039A4213DD019BA3F2BE534FF47A7227
:10077C0002FB03F3264A82FB03121A44DB17C3EB7A
:10078C00A223A3F596731BB21E4A538093E71D4B0D
:10079C0000225A808FE7029BB3F50B6F12DB029B92
:1007AC00A3F21F734FF47A7202FB03F3194A82FB14
:1007BC0003121A44DB17C3EBA223C83B1BB2114A2A
:1007CC0093808FE70F4B00229A808BE7039BB3F546
:1007DC000B6F12DB039BA3F21F734FF47A7202FBB5
:1007EC0003F30C4A82FB03121A44DB17C3EBA2235C
:1007FC00C83B1BB2034AD3808BE7024B0022DA8042
:10080C0087E700BF280000208C000020742400081B
:10081C00C99C1A9473F1948100080140000C0140AA
:10082C00FEE7FEE7FEE7FEE7FEE77047704770471E
:10083C0008B500F055FA08BD08B5012000F09EFF80
:10084C0008BD000082B00E4B9A6942F001029A6119
:10085C009A6902F001020092009ADA6942F0805221
:10086C00DA61DB6903F080530193019B054A5368FD
:10087C0023F0E06343F00073536002B0704700BF95
:10088C0000100240000001402DE9F04782B00546FF
:10089C00884617461E4600F02FFA0A9B1B1A03EBDC
:1008AC00060900F029FA8246284B1B68C3F3CB33A8
:1008BC0009FB03F301932B689C6838EA04040CBF12
:1008CC0001230023BB423DD0B6F1FF3FF3D000F033
:1008DC0013FAA0EB0A00484507D2019A02B14A4626
:1008EC00019B013B01939146E5E72A68536823F08D
:1008FC00E00353606B68B3F5827F0BD0AB6AB3F542
:10090C00005F14D0012385F85130002385F8503056
:10091C00032018E0AB68B3F5004F02D0B3F5806F3D
:10092C00ECD12A68136823F040031360E6E72A68C9
:10093C00136823F4005313602A68136843F40053BC
:10094C001360DFE7002002B0BDE8F087080000204C
:10095C0010B582B004460B46009200228021FFF7AE
:10096C0093FF08B902B010BD636D43F020036365BB
:10097C000320F7E7002856D010B50446436A33B974
:10098C004368B3F5827F05D00023C36102E00023E6
:10099C00036143610023A36294F85130002B3CD0D7
:1009AC00022384F851302268136823F0400313604B
:1009BC00636803F48273A26802F404421343E2688E
:1009CC0002F400621343226902F0020213436269CB
:1009DC0002F001021343A26902F400721343E269AC
:1009EC0002F038021343226A02F080021343A26A17
:1009FC0002F40052216813430B60638B226803F0EE
:100A0C00040353602268D36923F40063D36100208C
:100A1C006065012384F8513010BD84F850302046B5
:100A2C0000F0E8FFBCE7012070472DE9F04383B0EC
:100A3C001F460A9D90F85030012B00F01681044699
:100A4C0088469146012380F8503000F055F906464F
:100A5C0094F85130DBB26268012B0AD0B2F5827F78
:100A6C0040F0F080A268002A40F0F380042B40F0A4
:100A7C00F280B8F1000F00F0F080B9F1000F00F037
:100A8C00EE80002F00F0ED8094F85130DBB2042B97
:100A9C0002D0052384F8513000236365C4F83890E4
:100AAC00E787A787C4F83080E786A786236463644A
:100ABC0023681A6812F0400F03D11A6842F0400202
:100ACC001A60E368B3F5006F11D063680BB1012FA6
:100ADC000BD1226B236812781A73236B01332363B7
:100AEC00E38E9BB2013B9BB2E38601276EE0636809
:100AFC000BB1012F0BD1226B23681288DA60236BA8
:100B0C0002332363E38E9BB2013B9BB2E386012746
:100B1C001BE023689A6812F0010F0ED0E28F92B29C
:100B2C005AB1DA68A36B1A80A36B0233A363E38F09
:100B3C009BB2013B9BB2E387012700F0DDF8801BE1
:100B4C00A84202D3B5F1FF3F1ED1E38E9BB21BB975
:100B5C00E38F9BB2002B5CD023689A6812F0020FD3
:100B6C00D7D0E28E92B2002AD3D0002FD1D0226BF4
:100B7C001288DA60236B02332363E38E9BB2013B52
:100B8C009BB2E3860027C4E7012384F8513003208D
:100B9C0059E023689A6812F0010F0ED0E28F92B2DE
:100BAC005AB1DA68A36B1A70A36B0133A363E38F9A
:100BBC009BB2013B9BB2E387012700F09DF8831B9E
:100BCC00AB4202D3B5F1FF3F1ED1EDB1E38E9BB228
:100BDC0013B9E38F9BB2E3B123689A6812F0020F4A
:100BEC00D7D0E28E92B2002AD3D0002FD1D0226B74
:100BFC0012781A73236B01332363E38E9BB2013B90
:100C0C009BB2E3860027C4E7012384F8513003200C
:100C1C0019E0324629462046FFF79AFE70B9A368C0
:100C2C0033B901932368DA6801929B680193019BA5
:100C3C00636DC3B9012384F8513004E0202363654C
:100C4C00012000E00220002384F8503003B0BDE8FE
:100C5C00F0830220F7E70220F5E70120F3E70120FB
:100C6C00F1E70120EFE70120EDE70220EEE70000BD
:100C7C0010B504460E4B1A784FF47A73B3FBF2F3AB
:100C8C000C4A1068B0FBF3F000F0EAFD68B90F2CC9
:100C9C0001D901200AE0002221464FF0FF3000F07C
:100CAC00C1FD054B1C60002000E0012010BD00BF01
:100CBC0000000020080000200400002008B5074AAE
:100CCC00136843F010031360032000F099FD0F200C
:100CDC00FFF7CEFFFFF7B6FD002008BD0020024055
:100CEC00034A1168034B1B780B441360704700BF19
:100CFC003000002000000020014B1868704700BF36
:100D0C003000002038B50446FFF7F6FF0546B4F175
:100D1C00FF3F02D0044B1B781C44FFF7EDFF401B38
:100D2C00A042FAD338BD00BF0000002082B0084BAF
:100D3C001B68084AA2FB03235B0A00FB03F3019325
:100D4C0000BF019B5A1E0192002BF9D102B07047D3
:100D5C0008000020D34D6210002800F0F18170B51E
:100D6C0082B00446036813F0010F2CD0994B5B68DA
:100D7C0003F00C03042B1DD0964B5B6803F00C03A3
:100D8C00082B12D06368B3F5803F41D0002B55D1AE
:100D9C0003F1804303F504331A6822F480321A609D
:100DAC001A6822F480221A6037E08A4B5B6813F4CD
:100DBC00803FE7D0874B1B6813F4003F03D0636878
:100DCC00002B00F0BF81236813F0020F75D0814B0C
:100DDC005B6813F00C0F5FD07E4B5B6803F00C0369
:100DEC00082B54D02369002B00F08A807A4B012207
:100DFC001A60FFF781FF0546764B1B6813F0020F54
:100E0C0075D1FFF779FF401B0228F5D903209EE12D
:100E1C00704A136843F480331360636843B3FFF77D
:100E2C006BFF05466B4B1B6813F4003FCBD1FFF7F0
:100E3C0063FF401B6428F5D9032088E1B3F5A02F8C
:100E4C0009D0644B1A6822F480321A601A6822F4B2
:100E5C0080221A60E1E703F18043A3F53C331A6862
:100E6C0042F480221A601A6842F480321A60D4E785
:100E7C00FFF742FF0546574B1B6813F4003FA2D007
:100E8C00FFF73AFF401B6428F5D903205FE1514B73
:100E9C005B6813F4803FA5D14E4B1B6813F0020F17
:100EAC0003D02369012B40F04F814A4A136823F089
:100EBC00F803616943EAC1031360236813F0080F58
:100ECC0033D0A369002B5CD0434B0122C3F88024A0
:100EDC00FFF712FF05463F4B5B6A13F0020F21D15F
:100EEC00FFF70AFF401B0228F5D903202FE1394AEE
:100EFC00136823F0F803616943EAC1031360DCE76C
:100F0C00354B00221A60FFF7F7FE0546314B1B6884
:100F1C0013F0020FD1D0FFF7EFFE401B0228F5D9DA
:100F2C00032014E10120FFF701FF236813F0040FE5
:100F3C0000F09680274BDB6913F0805F34D1254B92
:100F4C00DA6942F08052DA61DB6903F08053019375
:100F5C00019B0125214B1B6813F4807F26D0E3688D
:100F6C00012B3DD0002B53D103F1804303F5043307
:100F7C001A6A22F001021A621A6A22F004021A6238
:100F8C0033E0154B0022C3F88024FFF7B5FE05466D
:100F9C00104B5B6A13F0020FC7D0FFF7ADFE401B7E
:100FAC000228F5D90320D2E00025D3E70B4A1368B9
:100FBC0043F480731360FFF79FFE0646074B1B68D4
:100FCC0013F4807FCBD1FFF797FE801B6428F5D9F3
:100FDC000320BCE0001002400000424200700040C0
:100FEC005F4A136A43F001031362E36833B3FFF7FC
:100FFC0083FE06465A4B1B6A13F0020F2FD1FFF7E4
:10100C007BFE801B41F288339842F3D903209EE08B
:10101C00052B09D0524B1A6A22F001021A621A6A85
:10102C0022F004021A62E0E74D4B1A6A42F0040205
:10103C001A621A6A42F001021A62D6E7FFF75CFEE6
:10104C000646474B1B6A13F0020F08D0FFF754FEFD
:10105C00801B41F288339842F3D9032077E0E5B93D
:10106C00E369002B72D03E4A526802F00C02082A47
:10107C0056D0022B17D03B4B00221A66FFF73CFED2
:10108C000446374B1B6813F0007F47D0FFF734FE44
:10109C00001B0228F5D9032059E0314AD36923F00B
:1010AC008053D361DCE72F4B00221A66FFF724FE36
:1010BC0005462B4B1B6813F0007F06D0FFF71CFE78
:1010CC00401B0228F5D9032041E0236AB3F5803F89
:1010DC001AD023494B6823F47413226A606A0243C2
:1010EC0013434B601F4B01221A66FFF705FE0446A3
:1010FC001B4B1B6813F0007F0ED1FFF7FDFD001B8F
:10110C000228F5D9032022E0154A536823F4003352
:10111C00A1680B435360DCE7002018E0002016E0C8
:10112C00012B16D00E4B5B6803F48031226A91427E
:10113C0011D103F47013626A93420ED1002006E0C1
:10114C0001207047012002E0012000E0002002B0E5
:10115C0070BD0120FBE70120F9E70120F7E700BF94
:10116C0000100240000042420F4B5B6803F00C027F
:10117C00082A01D00D487047C3F383420C49885CA0
:10118C0013F4803F0BD0084B5B68C3F34043094A10
:10119C00D35C064A02FB00F0B0FBF3F07047064B41
:1011AC0003FB00F0704700BF0010024000127A00F1
:1011BC00902400088C24000800093D00002800F051
:1011CC00A08070B50D460446524B1B6803F0070314
:1011DC008B420BD24F4A136823F007030B43136067
:1011EC00136803F007038B4240F08D80236813F0E3
:1011FC00020F17D013F0040F04D0474A536843F47E
:10120C00E0635360236813F0080F04D0424A53681C
:10121C0043F460535360404A536823F0F003A168D1
:10122C000B435360236813F0010F31D06368012B1B
:10123C0020D0022B25D0384A126812F0020F64D04D
:10124C0035494A6822F0030213434B60FFF754FD03
:10125C000646314B5B6803F00C036268B3EB820FFC
:10126C0016D0FFF749FD801B41F288339842F0D924
:10127C00032045E0284A126812F4003FE0D1012017
:10128C003EE0254A126812F0007FD9D1012037E0E8
:10129C00204B1B6803F00703AB420AD91D4A1368A5
:1012AC0023F007032B431360136803F00703AB42CF
:1012BC002DD1236813F0040F06D0174A536823F47A
:1012CC00E063E1680B435360236813F0080F07D009
:1012DC00114A536823F46053216943EAC1035360F4
:1012EC00FFF742FF0C4B5B68C3F303130B4AD35C51
:1012FC00D8400B4B18600B4B1868FFF7B9FC00205B
:10130C0070BD012070470120FAE70120F8E70120A9
:10131C00F6E700BF0020024000100240BC24000889
:10132C000800002004000020014B1868704700BF23
:10133C000800002008B5FFF7F7FF044B5B68C3F308
:10134C00C223034AD35CD84008BD00BF0010024042
:10135C00B424000870B582B00446036813F0010F82
:10136C0036D03F4BDB6913F0805F49D13C4BDA69D7
:10137C0042F08052DA61DB6903F080530193019BE8
:10138C000125384B1B6813F4807F3BD0344B1B6A10
:10139C0013F4407313D0626802F440729A420ED078
:1013AC002F4A136A23F440702F490126C1F8406478
:1013BC000026C1F84064106213F0010F36D1284AA0
:1013CC00136A23F4407361680B431362002D3ED102
:1013DC00236813F0020F06D0214A536823F44043CC
:1013EC00A1680B435360236813F0100F34D01C4AD0
:1013FC00536823F48003E1680B43536000202CE016
:10140C000025BEE7174A136843F480731360FFF797
:10141C0073FC0646134B1B6813F4807FB6D1FFF7A1
:10142C006BFC801B6428F5D9032016E0FFF764FCE5
:10143C0006460B4B1B6A13F0020FC0D1FFF75CFC86
:10144C00801B41F288339842F3D9032005E0D3691D
:10145C0023F08053D361BBE7002002B070BD00BF06
:10146C0000100240007000400000424208B5022803
:10147C004ED0102803D0012828D0002008BD2B4BBB
:10148C005A68186810F08070F8D0C2F3834328496A
:10149C00C85C12F4803F15D0244B5B68C3F3404307
:1014AC00244AD25C244BB3FBF2F303FB00F01F4B3A
:1014BC005B6813F4800FE1D14000204BA3FB00309C
:1014CC004008DBE71E4B03FB00F0F0E7174B1B6AF1
:1014DC0040F202321A40B2F5817F24D003F44073FB
:1014EC00B3F5007F04D0B3F5407F09D00020C5E7E9
:1014FC000E4A526A12F0020FF5D049F64040BDE791
:10150C000A4B186810F40030B8D04FF22440B5E7FD
:10151C00FFF710FF054B5B68C3F3813301335B00AE
:10152C00B0FBF3F0AAE74FF40040A7E7001002402D
:10153C00A4240008A024000800127A00ABAAAAAACE
:10154C0000093D0070B582B00024A446A2E07E4D97
:10155C00AB4210D007D97D4DAB420CD005F5803590
:10156C00AB4208D013E0A5F58015AB4203D005F5CE
:10157C007025AB4207D18B68002B55D0012B4ED078
:10158C004261082403E0A5F58015AB42F3D0BEF10F
:10159C00FF0F4BD806464FEA8C0233680F25954057
:1015AC0023EA050304FA02F2134333604B6813F089
:1015BC00805F6DD0664B9A6942F001029A619B691B
:1015CC0003F001030193019B4FEA9C02951C614BB4
:1015DC0053F825600CF00305AD000F23AB4026EA51
:1015EC0003065D4B984228D003F58063984200F0C7
:1015FC008D8003F58063984200F08A8003F5806348
:10160C00984218D0042319E0CC68C0E7CC680434A5
:10161C00BDE7CC680834BAE7CC680C34B7E7026194
:10162C000824B4E70024B2E70424B0E7061DACF1AB
:10163C0008029200B1E7032300E00023AB403343E0
:10164C000232444D45F822304B6813F4801F61D0B0
:10165C00424A936843EA0E0393604B6813F4001FED
:10166C005ED03E4AD36843EA0E03D3604B6813F452
:10167C00003F5BD0394A536843EA0E0353604B6812
:10168C0013F4803F58D0354A136843EA0E031360B5
:10169C000CF1010C0B6833FA0CF253D0012202FA54
:1016AC000CF203EA020E32EA0303F1D14B68122B5F
:1016BC003FF64DAF122B3FF66AAF01A555F823F05C
:1016CC0083150008151600081F16000831160008AF
:1016DC009B1500089B1500089B1500089B1500081E
:1016EC009B1500089B1500089B1500089B1500080E
:1016FC009B1500089B1500089B1500089B150008FE
:10170C009B1500081916000825160008012395E7FB
:10171C00022393E7114A936823EA0E0393609CE734
:10172C000E4AD36823EA0E03D3609FE70B4A536833
:10173C0023EA0E035360A2E7084A136823EA0E0358
:10174C001360A5E702B070BD00002210000031103C
:10175C00001002400000014000080140000401405C
:10176C008368194201D001207047002070470AB1EC
:10177C0001617047090401617047704708B5054B5A
:10178C005B69034200D108BD024B5861FFF7F5FFBE
:10179C00F9E700BF00040140002808DB0901C9B2C9
:1017AC0000F1604000F5614080F80013704700F0D4
:1017BC000F000901C9B2014B1954704714ED00E038
:1017CC0000B500F00700C0F1070CBCF1040F28BFF6
:1017DC004FF0040C031D062B0FD9C31E4FF0FF3E18
:1017EC000EFA0CF021EA000199400EFA03FE22EAEF
:1017FC000E0241EA02005DF804FB0023EEE7000054
:10180C00074AD36823F4E0631B041B0C000200F4AA
:10181C00E060034343F0BF6343F40033D36070478D
:10182C0000ED00E010B50446054BD868C0F302206B
:10183C00FFF7C6FF01462046FFF7AEFF10BD00BF05
:10184C0000ED00E0002807DB00F01F024009012337
:10185C009340024A42F82030704700BF00E100E09C
:10186C000138B0F1807F0BD24FF0E0235861054A6C
:10187C00F02182F823100020986107221A6170472A
:10188C000120704700ED00E0704700002DE9F043A7
:10189C0089B000240494059406940794404B9A69EB
:1018AC0042F010029A619A6902F010020092009ABA
:1018BC009A6942F020029A619A6902F02002019220
:1018CC00019A9A6942F004029A619A6902F0040240
:1018DC000292029A9A6942F008029A619B6903F09B
:1018EC0008030393039B2F4D224610212846FFF734
:1018FC003EFF2D4E224602213046FFF738FF4FF4B3
:10190C00604304930327059704A92848FFF71AFEA0
:10191C00082304930594069404A92846FFF712FEA5
:10192C00102304934FF00109CDF8149006944FF056
:10193C000208CDF81C800DEB03012846FFF702FED0
:10194C00CDF810901A4B0593069404A93046FFF776
:10195C00F9FDCDF81080CDF814900694CDF81C80CC
:10196C0004A93046FFF7EEFD4FF6FC730493059780
:10197C0004A93046FFF7E6FD4FF40743049305979F
:10198C0004A92846FFF7DEFD224621460620FFF774
:10199C0049FF0620FFF756FF09B0BDE8F08300BFF2
:1019AC000010024000080140000C014000100140F2
:1019BC000000111008B50D480D4B03604FF48273F5
:1019CC00436000238360C360036143614FF4007282
:1019DC008261C3610362436283620A23C362FEF7BE
:1019EC00C9FF00B908BDFEF7A1FDFBE734000020DC
:1019FC000030014010B586B000230293039304938A
:101A0C0005930268164B9A4201D006B010BD03F53F
:101A1C0060439A6942F480529A619A6902F4805246
:101A2C000092009A9A6942F004029A619B6903F051
:101A3C0004030193019BA02302930223039303232A
:101A4C000593084C02A92046FFF77CFD4023029326
:101A5C0000230393049302A92046FFF773FDD4E7F8
:101A6C00003001400008014000B585B0002301930F
:101A7C00029303931E481F4A02604FF480728260E7
:101A8C0003730122027582614FF46022C2614360CC
:101A9C000323036100F0AAFAF0B900230193012299
:101AAC000292039301A9124800F01CF9B8B9012362
:101ABC0001930223029301A90D4800F013F988B990
:101ACC00022301930323029301A9094800F00AF9A8
:101ADC0058B905B05DF804FBFEF728FDDDE7FEF70D
:101AEC0025FDE4E7FEF722FDEAE7FEF71FFDF0E730
:101AFC008C0000200024014000B587B00023029325
:101B0C000393049305930268114B9A4202D007B0D9
:101B1C005DF804FB03F56C439A6942F400729A6118
:101B2C009A6902F400720092009A9A6942F00402D7
:101B3C009A619B6903F004030193019B07230293B1
:101B4C000323039302A90348FFF7FCFCDFE700BF64
:101B5C000024014000080140F0B583B005460C4656
:101B6C0000230193FFF7C8F82B689A6812F4807F62
:101B7C0023D107465A6812F4807F03D1DB6A13F431
:101B8C00700F29D0504B1E680220FFF76FFCB6FB7C
:101B9C00F0F62B6819694D4A114236D1D96802F119
:101BAC005C42114231D11969494A114240D1DA687B
:101BBC00484B1A423ED0292341E0AB6A43F0200344
:101BCC00AB62002385F82430012003B0F0BD2B68F4
:101BDC001B6813F0020F0FD02B681B6813F0020F59
:101BEC004FD1B4F1FF3FF7D0002CF0D0FFF784F8C1
:101BFC00C31BA342F0D9EAE7AB6A43F00403AB6220
:101C0C00002385F824300320DFE71969304A11429C
:101C1C0004D1D96802F16E4211420DD019692E4AD5
:101C2C000A405AB9DA682C4B13405BB1FC2306E02E
:101C3C00292304E0142302E0542300E0FC2303FBDB
:101C4C0006F607E05423FAE7019BB34210D3019B3D
:101C5C0001330193019BB34213D2B4F1FF3FF6D091
:101C6C00002CF1D0FFF748F8C01BA042EFD9EBE7EE
:101C7C00AB6A43F00403AB62002385F824300320E5
:101C8C00A3E72B686FF012021A60AB6A43F400737F
:101C9C00AB622B689B6803F46023B3F5602F01D013
:101CAC00002092E7287B60B9AB6A23F48073AB62A7
:101CBC00AB6A13F4805F88D1AB6A43F00103AB626B
:101CCC0083E7002081E700BF08000020244992240C
:101CDC009224491292244900499224000368D86C3A
:101CEC007047000030B482B00022019290F824209A
:101CFC00012A00F08F800346012280F824204A68D4
:101D0C00062A2DD80468606B02EB8202053A4FF06C
:101D1C001F0C0CFA02FC20EA0C000D6805FA02F20A
:101D2C00024362630A68092A38D91C68E06802EB2E
:101D3C0042021E3A4FF0070C0CFA02FC20EA0C008F
:101D4C008D6805FA02F20243E2600A68103A012A31
:101D5C0034D90020002283F8242002B030BC704714
:101D6C000C2A0DD80568286B02EB8202233A1F243B
:101D7C00944020EA04000C68944020432863D1E787
:101D8C000568E86A02EB8202413A1F24944020EA7B
:101D9C0004000C6894402043E862C3E71C68206987
:101DAC0002EB42024FF0070C0CFA02FC20EA0C008A
:101DBC008D6805FA02F202432261C6E71A681648DA
:101DCC00824205D09A6A42F020029A620120C1E751
:101DDC00906810F4000F1BD1906840F400009060E4
:101DEC000A68102A01D00020B4E70C4A12680C498A
:101DFC00A1FB0212920C02EB82025200019202E051
:101E0C00019A013A0192019A002AF9D10020A1E726
:101E1C0000209FE70220A0E70024014008000020DA
:101E2C0083DE1B4330B583B00023019303689A68AB
:101E3C0012F0010F33D104469A6842F001029A6005
:101E4C00184B1B68184AA2FB03239B0C019302E05E
:101E5C00019B013B0193019B002BF9D1FEF74CFF39
:101E6C00054623689B6813F0010F16D1FEF744FF5B
:101E7C00431B022BF5D923689B6813F0010FF0D19B
:101E8C00A36A43F01003A362E36A43F00103E36225
:101E9C00002384F82430012002E0002000E0002020
:101EAC0003B030BD0800002083DE1B4390F82430C3
:101EBC00012B68D010B50446012380F82430FFF7BD
:101ECC00B1FF00285BD1A36A23F4407323F0010314
:101EDC0043F48073A36223682C4A934227D0A26AEE
:101EEC0022F48012A2625A6812F4806F05D0A26AA2
:101EFC0022F4405242F48052A262A26A12F4805F31
:101F0C002BD0E26A22F00602E262002284F824203E
:101F1C006FF002021A6023689A6802F46022B2F52C
:101F2C00602F1DD09A6842F480129A602AE0A2F5C4
:101F3C008062526812F4702FD1D0A26A42F48012DF
:101F4C00A262134A526812F4806FD6D0A26A22F4AD
:101F5C00405242F48052A262CFE70022E262D4E700
:101F6C000A4A934204D09A6842F4A0029A6009E0AB
:101F7C00A2F58062526812F4702FD3D1F3E70023DC
:101F8C0084F8243010BD0220704700BF00280140A7
:101F9C000024014038B503689A6812F0010F01D192
:101FAC00002038BD04469A6822F001029A60FEF7C0
:101FBC00A3FE054623689B6813F0010F13D0FEF7B0
:101FCC009BFE431B022BF5D923689B6813F0010F72
:101FDC00F0D0A36A43F01003A362E36A43F0010359
:101FEC00E3620120DDE70020DBE7000000287BD066
:101FFC0070B50446836A002B4DD02046FFF7CAFF0C
:10200C00A36A13F0100369D1002867D1A26A22F4E5
:10201C00885222F0020242F00202A2626268E16976
:10202C000A43217B42EA4102A568B5F5807F02D0C4
:10203C00012D36D01D46267D012E35D026687168BF
:10204C0021F46941294371602568AE682749314004
:10205C001143A960A168B1F5807F01D0012902D19B
:10206C002369013B1B052568E96A21F470010B43C8
:10207C00EB62236899681E4B0B409A4225D0A36AE9
:10208C0023F0120343F01003A362E36A43F001034D
:10209C00E362012027E0C36280F82430FFF72CFDB7
:1020AC00ABE74FF48075C6E731B9A169013945EA50
:1020BC00413141F40065C1E7A16A41F02001A16200
:1020CC00E16A41F00101E162B8E70023E362A36A2F
:1020DC0023F0030343F00103A36204E0A36A43F07B
:1020EC001003A362012070BD01207047FDF7E1FFD2
:1020FC00FE0E1FFF70B582B00023019390F82430C0
:10210C00012B72D00446012380F82430FFF742FFE4
:10211C002046FFF787FE054628B1002384F82430BB
:10212C00284602B070BDA36A23F4885323F002033F
:10213C0043F00203A3622E4B1E680220FFF796F9B0
:10214C00B6FBF0F67600019602E0019B013B019391
:10215C00019B002BF9D12268936843F0080393602C
:10216C00FEF7CAFD064623689A6812F0080F14D0D1
:10217C00FEF7C2FD801B0A28F5D923689B6813F073
:10218C00080FF0D0A36A23F0120343F01003A362EC
:10219C00002384F824300125C2E79A6842F0040237
:1021AC009A60FEF7A9FD064623689B6813F0040F9E
:1021BC0014D0FEF7A1FD801B0A28F5D923689B6873
:1021CC0013F0040FF0D0A36A23F0120343F01003B2
:1021DC00A362002384F824300125A1E7A36A23F02D
:1021EC00030343F00103A36297E7022598E700BFBE
:1021FC000800002070B586B0002800F081800446ED
:10220C0090F8A932EBB1032384F8A932206800F0CE
:10221C0080F8254655F8106BEC460FCDACE80F0056
:10222C002B68CCF80030231D0ECB304600F06AF83A
:10223C00054658B1022384F8A9320125284606B078
:10224C0070BD80F8A83200F09BF8DCE70021206814
:10225C0000F069F82B4616E05A1C02EB820104EBE5
:10226C00C1010120487002EB820104F8313004EB0B
:10227C00C1000021C17003EB830004EBC00081633B
:10228C00C1630164D3B261688B42E5D316E005EB00
:10229C00850304EBC303002283F8692183F868519A
:1022AC0083F86B21C3F87821C3F87C2105EB8503F7
:1022BC0004EBC303C3F880210135EDB2A942E6D883
:1022CC00254655F8106BEC460FCDACE80F002B688B
:1022DC00CCF80030231D0ECB304600F026F8054616
:1022EC0020B1022384F8A9320125A7E7002384F842
:1022FC002430012384F8A932206800F027F89DE7E8
:10230C0001259BE784B001A880E80E00002004B0F2
:10231C007047B0F8403023F47C535B045B0CA0F89E
:10232C004030002070470020704784B0844601A8DC
:10233C0080E80E000123ACF840300020ACF84000DF
:10234C00ACF84400ACF8500004B070470020704763
:10235C0008B50948094B03600823436002238360D6
:10236C0000238361C3610362FFF744FF00B908BD1A
:10237C00FEF7DCF8FBE700BFBC000020005C00406F
:10238C000268094B9A4200D0704782B003F5DA33E9
:10239C00DA6942F40002DA61DB6903F400030193A9
:1023AC00019B02B0704700BF005C0040FFF76CFA65
:1023BC000B480C490C4A002302E0D458C450043397
:1023CC00C4188C42F9D3094A094C002301E013606C
:1023DC000432A242FBD300F00FF8FEF7EDF8704781
:1023EC00000000200C000020D42400080C00002069
:1023FC00AC030020FEE7000070B500260C4D0D4C20
:10240C00641BA410A64209D100F022F800260A4D44
:10241C000A4C641BA410A64205D170BD55F8043BB0
:10242C0098470136EEE755F8043B98470136F2E73A
:10243C00CC240008CC240008CC240008D0240008AC
:10244C0003460244934200D1704703F8011BF9E79D
:10245C00F8B500BFF8BC08BC9E467047F8B500BF85
:08246C00F8BC08BC9E46704755
:1024740001000000FF0000006E52463234000000EC
:102484000A0B0C0D0E0F10000102000002030405DC
:10249400060708090A0B0C0D0E0F101001020000AC
:1024A40002030405060708090A0B0C0D0E0F101091
:1024B400000000000102030400000000000000000E
:0824C4000102030406070809E8
:0424CC00750100088E
:0424D0004D010008B2
:0C24D40001000000100000000024F400D3
:04000005080023B913
:00000001FF
